{
    "_format": "hh-sol-artifact-1",
    "contractName": "VRFHost",
    "sourceName": "contracts/VRFHost.sol",
    "abi": [
        {
            "inputs": [],
            "stateMutability": "nonpayable",
            "type": "constructor"
        },
        {
            "anonymous": false,
            "inputs": [
                {
                    "indexed": true,
                    "internalType": "uint32",
                    "name": "_id",
                    "type": "uint32"
                }
            ],
            "name": "NewRound",
            "type": "event"
        },
        {
            "inputs": [],
            "name": "addStake",
            "outputs": [],
            "stateMutability": "payable",
            "type": "function"
        },
        {
            "inputs": [
                {
                    "internalType": "address",
                    "name": "operator",
                    "type": "address"
                }
            ],
            "name": "checkStake",
            "outputs": [
                {
                    "internalType": "uint256",
                    "name": "",
                    "type": "uint256"
                }
            ],
            "stateMutability": "view",
            "type": "function"
        },
        {
            "inputs": [],
            "name": "getCurrentRandomNumber",
            "outputs": [
                {
                    "internalType": "uint256",
                    "name": "",
                    "type": "uint256"
                }
            ],
            "stateMutability": "view",
            "type": "function"
        },
        {
            "inputs": [],
            "name": "getCurrentRoundId",
            "outputs": [
                {
                    "internalType": "uint32",
                    "name": "",
                    "type": "uint32"
                }
            ],
            "stateMutability": "view",
            "type": "function"
        },
        {
            "inputs": [],
            "name": "getPreviousRandomNumber",
            "outputs": [
                {
                    "internalType": "uint256",
                    "name": "",
                    "type": "uint256"
                }
            ],
            "stateMutability": "view",
            "type": "function"
        },
        {
            "inputs": [
                {
                    "internalType": "uint32",
                    "name": "id",
                    "type": "uint32"
                }
            ],
            "name": "getRound",
            "outputs": [
                {
                    "components": [
                        {
                            "internalType": "address",
                            "name": "proposer",
                            "type": "address"
                        },
                        {
                            "internalType": "uint256",
                            "name": "randomNumber",
                            "type": "uint256"
                        },
                        {
                            "internalType": "bytes32",
                            "name": "randomNumberHash",
                            "type": "bytes32"
                        },
                        {
                            "internalType": "enum VRFHost.RoundState",
                            "name": "state",
                            "type": "uint8"
                        },
                        {
                            "internalType": "uint256",
                            "name": "blockHeight",
                            "type": "uint256"
                        }
                    ],
                    "internalType": "struct VRFHost.Round",
                    "name": "",
                    "type": "tuple"
                }
            ],
            "stateMutability": "view",
            "type": "function"
        },
        {
            "inputs": [],
            "name": "getValue",
            "outputs": [
                {
                    "internalType": "uint256",
                    "name": "",
                    "type": "uint256"
                }
            ],
            "stateMutability": "pure",
            "type": "function"
        },
        {
            "inputs": [
                {
                    "internalType": "address",
                    "name": "addr",
                    "type": "address"
                }
            ],
            "name": "isOperatorActive",
            "outputs": [
                {
                    "internalType": "bool",
                    "name": "",
                    "type": "bool"
                }
            ],
            "stateMutability": "view",
            "type": "function"
        },
        {
            "inputs": [],
            "name": "nextRound",
            "outputs": [],
            "stateMutability": "nonpayable",
            "type": "function"
        },
        {
            "inputs": [],
            "name": "nextRoundLate",
            "outputs": [],
            "stateMutability": "nonpayable",
            "type": "function"
        },
        {
            "inputs": [
                {
                    "internalType": "uint8",
                    "name": "_v",
                    "type": "uint8"
                },
                {
                    "internalType": "bytes32",
                    "name": "_r",
                    "type": "bytes32"
                },
                {
                    "internalType": "bytes32",
                    "name": "_s",
                    "type": "bytes32"
                }
            ],
            "name": "setRandomNumber",
            "outputs": [],
            "stateMutability": "nonpayable",
            "type": "function"
        },
        {
            "inputs": [
                {
                    "internalType": "uint8",
                    "name": "_v",
                    "type": "uint8"
                },
                {
                    "internalType": "bytes32",
                    "name": "_r",
                    "type": "bytes32"
                },
                {
                    "internalType": "bytes32",
                    "name": "_s",
                    "type": "bytes32"
                }
            ],
            "name": "verifyProposal",
            "outputs": [
                {
                    "internalType": "bool",
                    "name": "",
                    "type": "bool"
                }
            ],
            "stateMutability": "view",
            "type": "function"
        },
        {
            "inputs": [
                {
                    "internalType": "bytes32",
                    "name": "message",
                    "type": "bytes32"
                },
                {
                    "internalType": "uint8",
                    "name": "_v",
                    "type": "uint8"
                },
                {
                    "internalType": "bytes32",
                    "name": "_r",
                    "type": "bytes32"
                },
                {
                    "internalType": "bytes32",
                    "name": "_s",
                    "type": "bytes32"
                }
            ],
            "name": "verifySignature",
            "outputs": [
                {
                    "internalType": "address",
                    "name": "",
                    "type": "address"
                }
            ],
            "stateMutability": "pure",
            "type": "function"
        },
        {
            "inputs": [],
            "name": "withdrawStake",
            "outputs": [],
            "stateMutability": "nonpayable",
            "type": "function"
        }
    ],
    "bytecode": "0x608060405260018060006101000a81548163ffffffff021916908363ffffffff16021790555034801561003157600080fd5b506040518060a00160405280600073ffffffffffffffffffffffffffffffffffffffff1681526020017ff4af66a743b631375dbe319fa457aa07e08b0401f9a822f6c797722938143db281526020017f4d5f7dd6652bc469c41cc53d0c515d0254469f469272633b5b34ad32e2a10a0c60001b81526020016002808111156100bc576100bb61019b565b5b8152602001438152506000808063ffffffff16815260200190815260200160002060008201518160000160006101000a81548173ffffffffffffffffffffffffffffffffffffffff021916908373ffffffffffffffffffffffffffffffffffffffff160217905550602082015181600101556040820151816002015560608201518160030160006101000a81548160ff021916908360028111156101635761016261019b565b5b02179055506080820151816004015590505043600080600163ffffffff168152602001908152602001600020600401819055506101ca565b7f4e487b7100000000000000000000000000000000000000000000000000000000600052602160045260246000fd5b611ad880620001da6000396000f3fe6080604052600436106100dd5760003560e01c80636ffd39e81161007f5780639695786911610059578063969578691461027b578063bed9d861146102b8578063eb473533146102cf578063fb2c76cb1461030c576100dd565b80636ffd39e8146101ea57806380cd39e71461022757806390d96d761461023e576100dd565b806347e40553116100bb57806347e40553146101735780635727e25d1461018a5780635a627dbc146101b55780636e7b0fed146101bf576100dd565b806320965255146100e257806334d5bae31461010d578063380507b31461014a575b600080fd5b3480156100ee57600080fd5b506100f7610337565b60405161010491906111a2565b60405180910390f35b34801561011957600080fd5b50610134600480360381019061012f9190611231565b610340565b604051610141919061129f565b60405180910390f35b34801561015657600080fd5b50610171600480360381019061016c9190611231565b6103da565b005b34801561017f57600080fd5b50610188610788565b005b34801561019657600080fd5b5061019f610998565b6040516101ac91906112d9565b60405180910390f35b6101bd6109b2565b005b3480156101cb57600080fd5b506101d4610ac3565b6040516101e191906111a2565b60405180910390f35b3480156101f657600080fd5b50610211600480360381019061020c9190611320565b610afe565b60405161021e919061148b565b60405180910390f35b34801561023357600080fd5b5061023c610be5565b005b34801561024a57600080fd5b50610265600480360381019061026091906114d2565b610da6565b60405161027291906111a2565b60405180910390f35b34801561028757600080fd5b506102a2600480360381019061029d91906114ff565b610df2565b6040516102af9190611575565b60405180910390f35b3480156102c457600080fd5b506102cd610e6f565b005b3480156102db57600080fd5b506102f660048036038101906102f191906114d2565b610ff1565b604051610303919061129f565b60405180910390f35b34801561031857600080fd5b506103216110e9565b60405161032e91906111a2565b60405180910390f35b60006001905090565b60008061038d60008060018060009054906101000a900463ffffffff1661036791906115bf565b63ffffffff1663ffffffff16815260200190815260200160002060020154868686610df2565b9050600073ffffffffffffffffffffffffffffffffffffffff168173ffffffffffffffffffffffffffffffffffffffff16146103cd5760019150506103d3565b60009150505b9392505050565b600061042660008060018060009054906101000a900463ffffffff1661040091906115bf565b63ffffffff1663ffffffff16815260200190815260200160002060020154858585610df2565b90503373ffffffffffffffffffffffffffffffffffffffff168173ffffffffffffffffffffffffffffffffffffffff1614610496576040517f08c379a000000000000000000000000000000000000000000000000000000000815260040161048d90611654565b60405180910390fd5b6064600260008373ffffffffffffffffffffffffffffffffffffffff1673ffffffffffffffffffffffffffffffffffffffff168152602001908152602001600020600001541161051b576040517f08c379a0000000000000000000000000000000000000000000000000000000008152600401610512906116c0565b60405180910390fd5b6003600260008373ffffffffffffffffffffffffffffffffffffffff1673ffffffffffffffffffffffffffffffffffffffff16815260200190815260200160002060010160009054906101000a900463ffffffff16600160009054906101000a900463ffffffff1661058d91906115bf565b63ffffffff1611806105b857506005600160009054906101000a900463ffffffff1663ffffffff1611155b6105f7576040517f08c379a00000000000000000000000000000000000000000000000000000000081526004016105ee9061172c565b60405180910390fd5b600060808360001c901c60808560001c901b1790506000806000600160009054906101000a900463ffffffff1663ffffffff1663ffffffff168152602001908152602001600020905060016002811115610654576106536113ac565b5b8160030160009054906101000a900460ff166002811115610678576106776113ac565b5b036106c457806001015482106106c3576040517f08c379a00000000000000000000000000000000000000000000000000000000081526004016106ba906117be565b60405180910390fd5b5b60808460001c901c60808660001c901b17816001018190555080600101546040516020016106f291906111a2565b60405160208183030381529060405280519060200120816002018190555060018160030160006101000a81548160ff02191690836002811115610738576107376113ac565b5b0217905550828160000160006101000a81548173ffffffffffffffffffffffffffffffffffffffff021916908373ffffffffffffffffffffffffffffffffffffffff160217905550505050505050565b6000806000600160009054906101000a900463ffffffff1663ffffffff1663ffffffff1681526020019081526020016000209050600581600401546107cd91906117de565b4311801561082a57508060000160009054906101000a900473ffffffffffffffffffffffffffffffffffffffff1673ffffffffffffffffffffffffffffffffffffffff163373ffffffffffffffffffffffffffffffffffffffff16145b801561086b575060016002811115610845576108446113ac565b5b8160030160009054906101000a900460ff166002811115610869576108686113ac565b5b145b6108aa576040517f08c379a00000000000000000000000000000000000000000000000000000000081526004016108a19061185e565b60405180910390fd5b60028160030160006101000a81548160ff021916908360028111156108d2576108d16113ac565b5b02179055506001600081819054906101000a900463ffffffff16809291906108f99061187e565b91906101000a81548163ffffffff021916908363ffffffff1602179055505043600080600160009054906101000a900463ffffffff1663ffffffff1663ffffffff16815260200190815260200160002060040181905550600160009054906101000a900463ffffffff1663ffffffff167f7070e98ba33226dd52c8af328b325cc0a0806df2c2cb2edb42708308e6af745d60405160405180910390a250565b6000600160009054906101000a900463ffffffff16905090565b600034116109f5576040517f08c379a00000000000000000000000000000000000000000000000000000000081526004016109ec9061185e565b60405180910390fd5b34600260003373ffffffffffffffffffffffffffffffffffffffff1673ffffffffffffffffffffffffffffffffffffffff1681526020019081526020016000206000016000828254610a4791906117de565b92505081905550600160009054906101000a900463ffffffff16600260003373ffffffffffffffffffffffffffffffffffffffff1673ffffffffffffffffffffffffffffffffffffffff16815260200190815260200160002060010160006101000a81548163ffffffff021916908363ffffffff160217905550565b6000806000600160009054906101000a900463ffffffff1663ffffffff1663ffffffff16815260200190815260200160002060010154905090565b610b0661112f565b6000808363ffffffff1663ffffffff1681526020019081526020016000206040518060a00160405290816000820160009054906101000a900473ffffffffffffffffffffffffffffffffffffffff1673ffffffffffffffffffffffffffffffffffffffff1673ffffffffffffffffffffffffffffffffffffffff16815260200160018201548152602001600282015481526020016003820160009054906101000a900460ff166002811115610bbe57610bbd6113ac565b5b6002811115610bd057610bcf6113ac565b5b81526020016004820154815250509050919050565b6000806000600160009054906101000a900463ffffffff1663ffffffff1663ffffffff168152602001908152602001600020905060026005610c2791906118aa565b8160040154610c3691906117de565b43118015610c79575060016002811115610c5357610c526113ac565b5b8160030160009054906101000a900460ff166002811115610c7757610c766113ac565b5b145b610cb8576040517f08c379a0000000000000000000000000000000000000000000000000000000008152600401610caf9061185e565b60405180910390fd5b60028160030160006101000a81548160ff02191690836002811115610ce057610cdf6113ac565b5b02179055506001600081819054906101000a900463ffffffff1680929190610d079061187e565b91906101000a81548163ffffffff021916908363ffffffff1602179055505043600080600160009054906101000a900463ffffffff1663ffffffff1663ffffffff16815260200190815260200160002060040181905550600160009054906101000a900463ffffffff1663ffffffff167f7070e98ba33226dd52c8af328b325cc0a0806df2c2cb2edb42708308e6af745d60405160405180910390a250565b6000600260008373ffffffffffffffffffffffffffffffffffffffff1673ffffffffffffffffffffffffffffffffffffffff168152602001908152602001600020600001549050919050565b6000601b8460ff161015610e1057601b84610e0d91906118ec565b93505b600060018686868660405160008152602001604052604051610e35949392919061193f565b6020604051602081039080840390855afa158015610e57573d6000803e3d6000fd5b50505060206040510351905080915050949350505050565b6000600260003373ffffffffffffffffffffffffffffffffffffffff1673ffffffffffffffffffffffffffffffffffffffff16815260200190815260200160002060000154905060008111610ef9576040517f08c379a0000000000000000000000000000000000000000000000000000000008152600401610ef0906119d0565b60405180910390fd5b6000600260003373ffffffffffffffffffffffffffffffffffffffff1673ffffffffffffffffffffffffffffffffffffffff1681526020019081526020016000206000018190555060003373ffffffffffffffffffffffffffffffffffffffff1682604051610f6790611a21565b60006040518083038185875af1925050503d8060008114610fa4576040519150601f19603f3d011682016040523d82523d6000602084013e610fa9565b606091505b5050905080610fed576040517f08c379a0000000000000000000000000000000000000000000000000000000008152600401610fe490611a82565b60405180910390fd5b5050565b600080600260008473ffffffffffffffffffffffffffffffffffffffff1673ffffffffffffffffffffffffffffffffffffffff168152602001908152602001600020604051806040016040529081600082015481526020016001820160009054906101000a900463ffffffff1663ffffffff1663ffffffff16815250509050606481600001511180156110cf575060038160200151600160009054906101000a900463ffffffff166110a391906115bf565b63ffffffff1611806110ce57506005600160009054906101000a900463ffffffff1663ffffffff1611155b5b156110de5760019150506110e4565b60009150505b919050565b600080600060018060009054906101000a900463ffffffff1661110c91906115bf565b63ffffffff1663ffffffff16815260200190815260200160002060010154905090565b6040518060a00160405280600073ffffffffffffffffffffffffffffffffffffffff16815260200160008152602001600080191681526020016000600281111561117c5761117b6113ac565b5b8152602001600081525090565b6000819050919050565b61119c81611189565b82525050565b60006020820190506111b76000830184611193565b92915050565b600080fd5b600060ff82169050919050565b6111d8816111c2565b81146111e357600080fd5b50565b6000813590506111f5816111cf565b92915050565b6000819050919050565b61120e816111fb565b811461121957600080fd5b50565b60008135905061122b81611205565b92915050565b60008060006060848603121561124a576112496111bd565b5b6000611258868287016111e6565b93505060206112698682870161121c565b925050604061127a8682870161121c565b9150509250925092565b60008115159050919050565b61129981611284565b82525050565b60006020820190506112b46000830184611290565b92915050565b600063ffffffff82169050919050565b6112d3816112ba565b82525050565b60006020820190506112ee60008301846112ca565b92915050565b6112fd816112ba565b811461130857600080fd5b50565b60008135905061131a816112f4565b92915050565b600060208284031215611336576113356111bd565b5b60006113448482850161130b565b91505092915050565b600073ffffffffffffffffffffffffffffffffffffffff82169050919050565b60006113788261134d565b9050919050565b6113888161136d565b82525050565b61139781611189565b82525050565b6113a6816111fb565b82525050565b7f4e487b7100000000000000000000000000000000000000000000000000000000600052602160045260246000fd5b600381106113ec576113eb6113ac565b5b50565b60008190506113fd826113db565b919050565b600061140d826113ef565b9050919050565b61141d81611402565b82525050565b60a082016000820151611439600085018261137f565b50602082015161144c602085018261138e565b50604082015161145f604085018261139d565b5060608201516114726060850182611414565b506080820151611485608085018261138e565b50505050565b600060a0820190506114a06000830184611423565b92915050565b6114af8161136d565b81146114ba57600080fd5b50565b6000813590506114cc816114a6565b92915050565b6000602082840312156114e8576114e76111bd565b5b60006114f6848285016114bd565b91505092915050565b60008060008060808587031215611519576115186111bd565b5b60006115278782880161121c565b9450506020611538878288016111e6565b93505060406115498782880161121c565b925050606061155a8782880161121c565b91505092959194509250565b61156f8161136d565b82525050565b600060208201905061158a6000830184611566565b92915050565b7f4e487b7100000000000000000000000000000000000000000000000000000000600052601160045260246000fd5b60006115ca826112ba565b91506115d5836112ba565b9250828203905063ffffffff8111156115f1576115f0611590565b5b92915050565b600082825260208201905092915050565b7f57726f6e67207369676e61747572652100000000000000000000000000000000600082015250565b600061163e6010836115f7565b915061164982611608565b602082019050919050565b6000602082019050818103600083015261166d81611631565b9050919050565b7f4e6f207265717569726564207374616b65210000000000000000000000000000600082015250565b60006116aa6012836115f7565b91506116b582611674565b602082019050919050565b600060208201905081810360008301526116d98161169d565b9050919050565b7f596f75206e65656420746f207761697421000000000000000000000000000000600082015250565b60006117166011836115f7565b9150611721826116e0565b602082019050919050565b6000602082019050818103600083015261174581611709565b9050919050565b7f57726f6e67207369676e6174757265206f72206e756d626572206973206e6f7460008201527f2076616c69642100000000000000000000000000000000000000000000000000602082015250565b60006117a86027836115f7565b91506117b38261174c565b604082019050919050565b600060208201905081810360008301526117d78161179b565b9050919050565b60006117e982611189565b91506117f483611189565b925082820190508082111561180c5761180b611590565b5b92915050565b7f4e6f74207065726d697474656421000000000000000000000000000000000000600082015250565b6000611848600e836115f7565b915061185382611812565b602082019050919050565b600060208201905081810360008301526118778161183b565b9050919050565b6000611889826112ba565b915063ffffffff820361189f5761189e611590565b5b600182019050919050565b60006118b582611189565b91506118c083611189565b92508282026118ce81611189565b915082820484148315176118e5576118e4611590565b5b5092915050565b60006118f7826111c2565b9150611902836111c2565b9250828201905060ff81111561191b5761191a611590565b5b92915050565b61192a816111fb565b82525050565b611939816111c2565b82525050565b60006080820190506119546000830187611921565b6119616020830186611930565b61196e6040830185611921565b61197b6060830184611921565b95945050505050565b7f4e6f2066756e647320746f207769746864726177210000000000000000000000600082015250565b60006119ba6015836115f7565b91506119c582611984565b602082019050919050565b600060208201905081810360008301526119e9816119ad565b9050919050565b600081905092915050565b50565b6000611a0b6000836119f0565b9150611a16826119fb565b600082019050919050565b6000611a2c826119fe565b9150819050919050565b7f4661696c656420746f2073656e64204574686572000000000000000000000000600082015250565b6000611a6c6014836115f7565b9150611a7782611a36565b602082019050919050565b60006020820190508181036000830152611a9b81611a5f565b905091905056fea2646970667358221220e5b0af3338bf8cd9138448ec51a36145eea38a1ad0470a4f9878aaf2ca24c2ca64736f6c63430008130033",
    "linkReferences": {},
    "deployedLinkReferences": {}
}